:11020000AD00C0C900D074A200AD01C09D8302C92355
:11021100F004E84C090238A200BD8302E9308D8D0258
:10022200E8BD83028D8E02E8BD8302E9308D8F0224
:11023200AD8E02C92BF00dAD8D0238ED8F028D90027C
:110243004C5002AD8D02186D8F028D900218AD900244
:1102540069308D8702A93D8D8602A9238D8802A2006A
:10026500BD8302C923F0078D01D0E84C6502A900C2
:0E0275008D01D04C0002A9FF8D00D04C7D02FF
